:100000000C9462000C948A000C948A000C948A0070
:100010000C948A000C948A000C948A000C948A0038
:100020000C948A000C948A000C948A000C948A0028
:100030000C948A000C948A000C948A000C948A0018
:100040000C94CD010C948A000C943D040C948A000D
:100050000C948A000C948A000C948A000C948A00F8
:100060000C948A000C948A000000000024002700F1
:100070002A0000000000250028002B0000000000DE
:1000800023002600290004040404040404040202DA
:100090000202020203030303030301020408102007
:1000A0004080010204081020010204081020000012
:1000B0000007000201000003040600000000000029
:1000C00000009A0511241FBECFEFD4E0DEBFCDBFE4
:1000D00011E0A0E0B1E0ECEEF0E102C005900D927D
:1000E000A831B107D9F711E0A8E1B1E001C01D9234
:1000F000AC3BB107E1F710E0C4ECD0E004C02297BC
:10010000FE010E947008C23CD107C9F70E943B0162
:100110000C9474080C9400000E94AF019C01833081
:1001200091052CF4E0E070E080E86FEB1DC0B901B0
:10013000882777FD8095982F0E94D80620E030E030
:1001400040EA50E40E94D5059B01AC0160E070E2FA
:1001500086E395E40E943D0620E030E040E85FE35E
:100160000E94D405E62F692F2E2F372F482F562FA8
:10017000B901CA01089510C089EA91E041E450E054
:1001800060E070E020E030E00E9492036CE271E0F9
:1001900080E090E00E94150289EA91E00E947305D8
:1001A000882351F3089580E00E948C00AB01BC01CC
:1001B000409318015093190160931A0170931B0129
:1001C00089EA91E00E94320460E971E080E090E009
:1001D0000E9415028091080161E00E9462018091F5
:1001E000060161E00E94620160911801709119019D
:1001F00080911A0190911B010E94A50661507040E8
:100200006930710548F480910A0160E00E94620142
:100210008091040161E008C080910A0161E00E94C0
:1002200062018091040160E00E9462010895809162
:10023000020161E00E9442018091040161E00E949C
:1002400042018091060161E00E9442018091080113
:1002500061E00E94420180910A0161E00E94420136
:1002600089EA91E040E855E260E070E00E947A049B
:100270000E94BB0008950E943F020E9417010E9445
:10028000D300FDCF282F30E0C90186569F4FFC01D7
:1002900094912A573F4FF9018491882391F0E82FD8
:1002A000F0E0EE0FFF1FE859FF4FA591B4916623D0
:1002B00029F48C91909589238C9308958C91892BA6
:1002C0008C930895482F50E0CA0182559F4FFC013E
:1002D0002491CA0186569F4FFC0194914A575F4F63
:1002E000FA0134913323D1F1222331F1233021F467
:1002F000809180008F7705C0243031F48091800098
:100300008F7D8093800018C0213019F484B58F77D9
:1003100004C0223021F484B58F7D84BD0DC0263009
:1003200021F48091B0008F7705C0273029F48091A7
:10033000B0008F7D8093B000E32FF0E0EE0FFF1F41
:10034000EE58FF4FA591B491662329F48C919095B6
:1003500089238C9308958C91892B8C9308958F70A9
:1003600090910C019295990F990F907C982B9093F6
:100370007C0080917A00806480937A0080917A007A
:1003800086FDFCCF2091780040917900942F80E089
:1003900030E0282B392BC90108951F920F920FB618
:1003A0000F9211242F933F938F939F93AF93BF93FB
:1003B0008091200190912101A0912201B09123010F
:1003C000309124010196A11DB11D232F2D5F2D37E2
:1003D00020F02D570196A11DB11D2093240180937B
:1003E000200190932101A0932201B09323018091D9
:1003F0001C0190911D01A0911E01B0911F01019659
:10040000A11DB11D80931C0190931D01A0931E019D
:10041000B0931F01BF91AF919F918F913F912F9109
:100420000F900FBE0F901F901895EF92FF920F93B1
:100430001F937B018C018FB7F8944091200150915C
:10044000210160912201709123018FBF2FB7F89491
:100450008091200190912101A0912201B09123016E
:100460002FBF841B950BA60BB70BE816F9060A07DE
:100470001B0760F71F910F91FF90EF9008957894FC
:1004800084B5826084BD84B5816084BD85B5826099
:1004900085BD85B5816085BDEEE6F0E08081816037
:1004A0008083E1E8F0E080818260808380818160E8
:1004B0008083E0E8F0E0808181608083E1EBF0E020
:1004C000808184608083E0EBF0E0808181608083C4
:1004D000EAE7F0E0808184608083808182608083AD
:1004E0008081816080838081806880831092C100D8
:1004F00008950F931F93CF93DF938C01EB0109C0F5
:100500002196D801ED91FC910190F081E02DC80178
:10051000099568816623A1F7DF91CF911F910F9113
:100520000895EF92FF920F931F93CF93DF938C0167
:100530007B01EA010CC0D7016D917D01D801ED91DD
:10054000FC910190F081E02DC80109952197209739
:1005500091F7DF91CF911F910F91FF90EF90089548
:10056000DC01ED91FC910280F381E02D0995089565
:100570000F931F938C01DC01ED91FC910190F081B0
:10058000E02D6DE00995D801ED91FC910190F0818D
:10059000E02DC8016AE009951F910F9108952F92EF
:1005A0003F924F925F926F927F928F929F92AF9203
:1005B000BF92CF92DF92EF92FF920F931F93DF9340
:1005C000CF93CDB7DEB7A0970FB6F894DEBF0FBEBE
:1005D000CDBF1C016A017B01411551056105710503
:1005E00049F4DC01ED91FC910190F081E02D60E394
:1005F000099554C0882499245401422E5524662418
:10060000772401E010E00C0F1D1F080D191DC70114
:10061000B601A30192010E941D08F80160830894AD
:10062000811C911CA11CB11CC701B601A301920140
:100630000E941D08C901DA016C017D01C114D104B9
:10064000E104F104F1F681E0E82EF12CEC0EFD1E40
:10065000E80CF91C3E010894611C711CD501C40111
:100660000197A109B1096C01C818D90814C0F60195
:10067000EE0DFF1D60816A3010F4605D01C0695CA1
:10068000D101ED91FC910190F081E02DC10109951E
:100690000894E108F1086E147F0449F7A0960FB69C
:1006A000F894DEBF0FBECDBFCF91DF911F910F91A8
:1006B000FF90EF90DF90CF90BF90AF909F908F9082
:1006C0007F906F905F904F903F902F9008952AE019
:1006D0000E94CF020895EF92FF920F931F93CF9342
:1006E000DF93EC017A018B0177FF0FC0E881F9817C
:1006F0000190F081E02D6DE2099510950095F09440
:10070000E094E11CF11C011D111DCE01B801A701EF
:100710002AE00E94CF02DF91CF911F910F91FF90AD
:10072000EF900895DC012115310541F4ED91FC9124
:100730000190F081E02D642F099508952A3031054C
:1007400019F40E946B0308950E94CF0208959F92AE
:10075000AF92BF92CF92DF92EF92FF920F931F93CF
:10076000CF93DF93EC017A018B01922ECB01BA017A
:1007700020E030E040E050E00E943906882364F435
:10078000E881F9810190F081E02DCE016DE20995BB
:1007900017FB109517F9109520E030E040E05FE37B
:1007A000AA240BC0CA01B90120E030E040E251E4C4
:1007B0000E943D069B01AC01A394A91498F3C801C3
:1007C000B7010E94D5055B016C010E94AA067B015E
:1007D0008C01CE01B801A7010E946703992029F07E
:1007E000CE0160E071E00E94B002C801B7010E9432
:1007F000D6069B01AC01C601B5010E94D40520C0FC
:1008000020E030E040E251E40E9488077B018C0147
:100810000E94A5065B016C01CC24B7FCC094DC2CC3
:10082000CE01B601A5010E946B03C601B5010E946D
:10083000D8069B01AC01C801B7010E94D4059A9467
:100840009920F1F6DF91CF911F910F91FF90EF90DA
:10085000DF90CF90BF90AF909F90089522E00E94CC
:10086000A70308950F931F938C010E942E04C801C3
:100870000E94B8021F910F9108951F920F920FB618
:100880000F9211242F933F934F935F936F937F9316
:100890008F939F93AF93BF93EF93FF934091C600C5
:1008A000E091A501F091A601CF01019660E870E00A
:1008B0000E940A089C018091A7019091A801281725
:1008C000390739F0EB5DFE4F40833093A60120934A
:1008D000A501FF91EF91BF91AF919F918F917F9172
:1008E0006F915F914F913F912F910F900FBE0F909D
:1008F0001F9018955F926F927F928F929F92AF9206
:10090000BF92CF92DF92EF92FF920F931F93CF93FC
:10091000DF93EC013A014B01413482E458078FE048
:10092000680780E078070CF07FC060E874E88EE12B
:1009300090E0A40193010E943F08215030404040C4
:100940005040CA01B90122E030E040E050E00E948E
:100950003F0859016A01A6019501209530954095FF
:10096000509594E0220F331F441F551F9A95D1F7DD
:1009700060E074E284EF90E00E943F08CA01B90190
:100980002FEF30E040E050E00E94EB07A40193011C
:100990000E943F08C90181509F4F181619061CF488
:1009A000522E5A9403C055245394521A60E079E0B1
:1009B0008DE390E0A40193010E943F082150304054
:1009C00040405040CA01B90122E030E040E050E030
:1009D0000E943F08209530954095509583E0220F66
:1009E000331F441F551F8A95D1F760E074E284EFEE
:1009F00090E00E943F08CA01B9012FEF30E040E0CB
:100A000050E00E94EB07A40193010E943F08C90136
:100A100081509F4F181619061CF4822F815002C076
:100A200081E0821B851500F5E885F98581E090E07D
:100A30000A8802C0880F991F0A94E2F7808360E059
:100A400079E08DE390E0A40193010E943F082150DA
:100A5000304040405040CA01B90122E030E040E05F
:100A600050E00E943F0804C0E885F9851082950196
:100A7000EC81FD813083EE81FF812083EA85FB8557
:100A8000208141E050E0CA010E8402C0880F991F06
:100A90000A94E2F7282B2083EA85FB852081CA018E
:100AA0000F8402C0880F991F0A94E2F7282B208335
:100AB000EA85FB858081088802C0440F551F0A948F
:100AC000E2F7842B8083DF91CF911F910F91FF90EC
:100AD000EF90DF90CF90BF90AF909F908F907F90DE
:100AE0006F905F900895DC011296ED91FC91139741
:100AF000E058FF4F8191919180589F4F2081318123
:100B0000821B930B60E870E00E940A080895FC01C4
:100B1000A085B18521898C9190E0022E02C0959527
:100B200087950A94E2F780FFF6CF0484F585E02DDF
:100B30006083089581E191E09093AA018093A901D7
:100B400085E291E09093AC018093AB0185EC90E05D
:100B50009093AE018093AD0184EC90E09093B0014E
:100B60008093AF0180EC90E09093B2018093B1014B
:100B700081EC90E09093B4018093B30186EC90E017
:100B80009093B6018093B50184E08093B70183E030
:100B90008093B80187E08093B90185E08093BA0122
:100BA00081E08093BB0108955058BB27AA270ED03F
:100BB00075C166D130F06BD120F031F49F3F11F454
:100BC0001EF45BC10EF4E095E7FB51C1E92F77D12C
:100BD00080F3BA17620773078407950718F071F45A
:100BE0009EF58FC10EF4E0950B2EBA2FA02D0B01B0
:100BF000B90190010C01CA01A0011124FF27591B62
:100C000099F0593F50F4503E68F11A16F040A22F67
:100C1000232F342F4427585FF3CF469537952795D8
:100C2000A795F0405395C9F77EF41F16BA0B620BD7
:100C3000730B840BBAF09150A1F0FF0FBB1F661F1E
:100C4000771F881FC2F70EC0BA0F621F731F841F61
:100C500048F4879577956795B795F7959E3F08F087
:100C6000B3CF9395880F08F09927EE0F9795879546
:100C70000895D9D008F481E008950CD00FC107D1B0
:100C800040F0FED030F021F45F3F19F0F0C0511178
:100C900039C1F3C014D198F39923C9F35523B1F3A3
:100CA000951B550BBB27AA2762177307840738F0DB
:100CB0009F5F5F4F220F331F441FAA1FA9F333D03A
:100CC0000E2E3AF0E0E830D091505040E695001CEE
:100CD000CAF729D0FE2F27D0660F771F881FBB1FAA
:100CE000261737074807AB07B0E809F0BB0B802D84
:100CF000BF01FF2793585F4F2AF09E3F510568F0D0
:100D0000B6C000C15F3FECF3983EDCF38695779563
:100D10006795B795F7959F5FC9F7880F911D9695D1
:100D2000879597F90895E1E0660F771F881FBB1F2D
:100D3000621773078407BA0720F0621B730B840BDA
:100D4000BA0BEE1F88F7E095089504D06894B111AE
:100D5000D9C00895BCD088F09F5790F0B92F99273B
:100D6000B751A0F0D1F0660F771F881F991F1AF0B6
:100D7000BA95C9F712C0B13081F0C3D0B1E008957F
:100D8000C0C0672F782F8827B85F39F0B93FCCF300
:100D9000869577956795B395D9F73EF490958095AC
:100DA000709561957F4F8F4F9F4F0895E89409C0CC
:100DB00097FB3EF490958095709561957F4F8F4F8E
:100DC0009F4F9923A9F0F92F96E9BB279395F695A4
:100DD000879577956795B795F111F8CFFAF4BB0F22
:100DE00011F460FF1BC06F5F7F4F8F4F9F4F16C086
:100DF000882311F096E911C0772321F09EE8872F10
:100E0000762F05C0662371F096E8862F70E060E0CB
:100E10002AF09A95660F771F881FDAF7880F969544
:100E2000879597F90895990F0008550FAA0BE0E8E8
:100E3000FEEF16161706E807F907C0F0121613069C
:100E4000E407F50798F0621B730B840B950B39F4DC
:100E50000A2661F0232B242B252B21F408950A2642
:100E600009F4A140A6958FEF811D811D089597F982
:100E70009F6780E870E060E008959FEF80EC089540
:100E800000240A9416161706180609060895002469
:100E90000A9412161306140605060895092E0394E3
:100EA000000C11F4882352F0BB0F40F4BF2B11F457
:100EB00060FF04C06F5F7F4F8F4F9F4F089557FDB6
:100EC0009058440F551F59F05F3F71F04795880FB8
:100ED00097FB991F61F09F3F79F08795089512164F
:100EE00013061406551FF2CF4695F1DF08C01616FB
:100EF00017061806991FF1CF8695710561050894AC
:100F00000895E894BB2766277727CB0197F90895C2
:100F10000BD0C4CFB5DF28F0BADF18F0952309F065
:100F2000A6CFABCF1124EECFCADFA0F3959FD1F3AC
:100F3000950F50E0551F629FF001729FBB27F00D87
:100F4000B11D639FAA27F00DB11DAA1F649F6627DC
:100F5000B00DA11D661F829F2227B00DA11D621F2B
:100F6000739FB00DA11D621F839FA00D611D221FE5
:100F7000749F3327A00D611D231F849F600D211DC9
:100F8000822F762F6A2F11249F5750408AF0E1F06C
:100F900088234AF0EE0FFF1FBB1F661F771F881FB5
:100FA00091505040A9F79E3F510570F060CFAACFF5
:100FB0005F3FECF3983EDCF3869577956795B795A0
:100FC000F795E7959F5FC1F7FE2B880F911D9695CA
:100FD000879597F90895629FD001739FF001829FD2
:100FE000E00DF11D649FE00DF11D929FF00D839FB8
:100FF000F00D749FF00D659FF00D9927729FB00D55
:10100000E11DF91F639FB00DE11DF91FBD01CF0167
:101010001124089597FB092E07260AD077FD04D0E6
:1010200049D006D000201AF4709561957F4F08953D
:10103000F6F7909581959F4F0895A1E21A2EAA1B6D
:10104000BB1BFD010DC0AA1FBB1FEE1FFF1FA21778
:10105000B307E407F50720F0A21BB30BE40BF50B75
:10106000661F771F881F991F1A9469F760957095FE
:10107000809590959B01AC01BD01CF01089597FB30
:10108000092E05260ED057FD04D0D7DF0AD0001C4C
:1010900038F450954095309521953F4F4F4F5F4F15
:1010A0000895F6F790958095709561957F4F8F4FD5
:1010B0009F4F0895AA1BBB1B51E107C0AA1FBB1F6E
:1010C000A617B70710F0A61BB70B881F991F5A95D4
:1010D000A9F780959095BC01CD010895EE0FFF1FF3
:0C10E0000590F491E02D0994F894FFCFE6
:1010EC002E000D00020003000400050001000000AA
:0810FC00008705790291020052
:00000001FF
