:100000000C9461000C947E000C947E000C947E0095
:100010000C947E000C947E000C947E000C947E0068
:100020000C947E000C947E000C947E000C947E0058
:100030000C947E000C947E000C947E000C947E0048
:100040000C9462010C947E000C947E000C947E0053
:100050000C947E000C947E000C947E000C947E0028
:100060000C947E000C947E00000000002400270009
:100070002A0000000000250028002B0000000000DE
:1000800023002600290004040404040404040202DA
:100090000202020203030303030301020408102007
:1000A0004080010204081020010204081020000012
:1000B0000007000201000003040600000000000029
:1000C000000011241FBECFEFD8E0DEBFCDBF11E08E
:1000D000A0E0B1E0EEE4F8E002C005900D92AC3093
:1000E000B107D9F711E0ACE0B1E001C01D92A93130
:1000F000B107E1F70E945B010C9425040C94000009
:100100000E940E029C01833091052CF4E0E070E027
:1001100080E86FEB1DC0B901882777FD8095982F87
:100120000E94990320E030E040EA50E40E949A02E5
:100130009B01AC0160E070E286E395E40E94FE0260
:1001400020E030E040E85FE30E949902E62F692F4B
:100150002E2F372F482F562FB901CA0108958091AD
:1001600008010E94800060930C0170930D01809340
:100170000E0190930F010E946603CB01099702972D
:1001800098F48091020161E00E944C028091060186
:1001900061E00E944C028091000160E00E944C02EC
:1001A0008091040160E031C06C3071058CF1809168
:1001B000020161E00E944C028091060161E00E9410
:1001C0004C028091000160E00E944C028091040189
:1001D00060E00E944C02809108010E9480006093C0
:1001E0000C0170930D0180930E0190930F0180918B
:1001F000020160E00E944C0264EF71E080E090E058
:100200000E94AA018091020161E00E944C020895BF
:10021000615070406730710520F58091020161E006
:100220000E944C028091060161E00E944C02809184
:10023000000160E00E944C028091040160E00E9495
:100240004C028091060160E00E944C0264EF71E074
:1002500080E090E00E94AA018091060161E00E9486
:100260004C0208958091000161E00E942C0280916F
:10027000020161E00E942C028091040161E00E9471
:100280002C028091060161E00E942C028091000105
:1002900060E00E944C028091020160E00E944C02EA
:1002A0008091040160E00E944C028091060160E0B0
:1002B0000E944C0208950E94D4010E9432010E94C3
:1002C000AF00FDCF1F920F920FB60F9211242F9304
:1002D0003F938F939F93AF93BF938091140190911D
:1002E0001501A0911601B0911701309118010196E6
:1002F000A11DB11D232F2D5F2D3720F02D57019605
:10030000A11DB11D20931801809314019093150134
:10031000A0931601B09317018091100190911101E3
:10032000A0911201B09113010196A11DB11D8093FE
:10033000100190931101A0931201B0931301BF918A
:10034000AF919F918F913F912F910F900FBE0F9082
:100350001F901895EF92FF920F931F937B018C01D2
:100360008FB7F894409114015091150160911601D6
:10037000709117018FBF2FB7F8948091140190915D
:100380001501A0911601B09117012FBF841B950B89
:10039000A60BB70BE816F9060A071B0760F71F91B3
:1003A0000F91FF90EF900895789484B5826084BD9A
:1003B00084B5816084BD85B5826085BD85B5816069
:1003C00085BDEEE6F0E0808181608083E1E8F0E0C9
:1003D000808182608083808181608083E0E8F0E0BA
:1003E000808181608083E1EBF0E0808184608083A4
:1003F000E0EBF0E0808181608083EAE7F0E08081DB
:10040000846080838081826080838081816080833A
:100410008081806880831092C10008958F709091D0
:100420000A019295990F990F907C982B90937C00DC
:1004300080917A00806480937A0080917A0086FDB2
:10044000FCCF2091780040917900942F80E030E03B
:10045000282B392BC9010895282F30E0C901865671
:100460009F4FFC0194912A573F4FF90184918823B3
:1004700091F0E82FF0E0EE0FFF1FE859FF4FA59134
:10048000B491662329F48C91909589238C930895D7
:100490008C91892B8C930895482F50E0CA01825586
:1004A0009F4FFC012491CA0186569F4FFC019491F5
:1004B0004A575F4FFA0134913323D1F1222331F1AE
:1004C000233021F4809180008F7705C0243031F4EF
:1004D000809180008F7D8093800018C0213019F4B6
:1004E00084B58F7704C0223021F484B58F7D84BD1C
:1004F0000DC0263021F48091B0008F7705C02730E1
:1005000029F48091B0008F7D8093B000E32FF0E05C
:10051000EE0FFF1FEE58FF4FA591B491662329F40B
:100520008C91909589238C9308958C91892B8C9331
:1005300008955058BB27AA270ED04DC13ED130F0A8
:1005400043D120F031F49F3F11F41EF433C10EF477
:10055000E095E7FB29C1E92F4FD180F3BA17620775
:1005600073078407950718F071F49EF567C10EF4C0
:10057000E0950B2EBA2FA02D0B01B90190010C01B3
:10058000CA01A0011124FF27591B99F0593F50F4CB
:10059000503E68F11A16F040A22F232F342F442723
:1005A000585FF3CF469537952795A795F04053951B
:1005B000C9F77EF41F16BA0B620B730B840BBAF0EB
:1005C0009150A1F0FF0FBB1F661F771F881FC2F756
:1005D0000EC0BA0F621F731F841F48F4879577956A
:1005E0006795B795F7959E3F08F0B3CF9395880F21
:1005F00008F09927EE0F9795879508950CD0EBC0DA
:10060000E3D040F0DAD030F021F45F3F19F0CCC0F5
:10061000511115C1CFC0F0D098F39923C9F35523D8
:10062000B1F3951B550BBB27AA27621773078407E5
:1006300038F09F5F5F4F220F331F441FAA1FA9F39B
:1006400033D00E2E3AF0E0E830D091505040E6958D
:10065000001CCAF729D0FE2F27D0660F771F881FEE
:10066000BB1F261737074807AB07B0E809F0BB0BDD
:10067000802DBF01FF2793585F4F2AF09E3F510501
:1006800068F092C0DCC05F3FECF3983EDCF38695E7
:1006900077956795B795F7959F5FC9F7880F911D77
:1006A0009695879597F90895E1E0660F771F881F63
:1006B000BB1F621773078407BA0720F0621B730B16
:1006C000840BBA0BEE1F88F7E095089504D0689468
:1006D000B111B5C0089598D088F09F5790F0B92F08
:1006E0009927B751A0F0D1F0660F771F881F991F87
:1006F0001AF0BA95C9F712C0B13081F09FD0B1E0BD
:1007000008959CC0672F782F8827B85F39F0B93FCC
:10071000CCF3869577956795B395D9F73EF4909588
:100720008095709561957F4F8F4F9F4F0895E89406
:1007300009C097FB3EF490958095709561957F4F29
:100740008F4F9F4F9923A9F0F92F96E9BB279395D7
:10075000F695879577956795B795F111F8CFFAF4E7
:10076000BB0F11F460FF1BC06F5F7F4F8F4F9F4F18
:1007700016C0882311F096E911C0772321F09EE876
:10078000872F762F05C0662371F096E8862F70E0DC
:1007900060E02AF09A95660F771F881FDAF7880FB6
:1007A0009695879597F9089597F99F6780E870E087
:1007B00060E008959FEF80EC089500240A941616D7
:1007C000170618060906089500240A94121613063F
:1007D000140605060895092E0394000C11F48823CD
:1007E00052F0BB0F40F4BF2B11F460FF04C06F5FE9
:1007F0007F4F8F4F9F4F089557FD9058440F551FBF
:1008000059F05F3F71F04795880F97FB991F61F092
:100810009F3F79F087950895121613061406551F09
:10082000F2CF4695F1DF08C0161617061806991F75
:10083000F1CF86957105610508940895E894BB276A
:0E08400066277727CB0197F90895F894FFCF2C
:0C084E0005000600070008000100010082
:00000001FF
